:10000000C6C10000DFC10000DDC10000DBC100008F
:10001000D9C10000D7C10000D5C10000D3C1000084
:10002000D1C10000CFC10000CDC10000CBC1000094
:10003000C9C10000C7C10000C5C10000C3C10000A4
:10004000C1C1000073C20000BDC10000BBC10000FF
:10005000B9C10000B7C10000B5C10000B3C10000C4
:10006000B1C10000AFC10000ADC10000ABC10000D4
:10007000A9C10000A7C10000A5C10000A3C10000E4
:10008000A1C100009FC100009DC100009BC10000F4
:1000900099C1000097C1000095C1000093C1000004
:1000A00091C100009DC100008DC100006E616E0015
:1000B000696E6600000000000000005F000000079D
:1000C000000700147F147F14242A7F2A12231308A8
:1000D000646236495522500005030000001C22418D
:1000E000000041221C0014083E081408083E0808BD
:1000F0000050300000080808080800606000002078
:10010000100804023E5149453E00427F40004261D2
:100110005149462141454B311814127F102745455E
:1001200045393C4A49493001710905033649494975
:1001300036064949291E00363600000056360000B2
:10014000081422410014141414140041221408024B
:1001500001510906324979413E7E1111117E7F49D4
:100160004949363E414141227F4141221C7F494954
:1001700049417F090909013E4149497A7F08080838
:100180007F00417F41002040413F017F0814224110
:100190007F404040407F020C027F7F0408107F3E7A
:1001A0004141413E7F090909063E4151215E7F09D7
:1001B000192946464949493101017F01013F404023
:1001C000403F1F2040201F3F4038403F6314081429
:1001D0006307087008076151494543007F414100AA
:1001E00002040810200041417F0004020102044083
:1001F00040404040000102040020545454787F489D
:100200004444383844444420384444487F385454A3
:100210005418087E0901020C5252523E7F08040411
:100220007800447D40002040443D007F1028440079
:1002300000417F40007C041804787C08040478386E
:10024000444444387C14141408081414187C7C08A2
:100250000404084854545420043F4440203C404087
:10026000207C1C2040201C3C4030403C442810286E
:10027000440C5050503C4464544C440008364100F7
:1002800000007F00000041360800100808100878C0
:100290004641467800407A10F35A00A0724E180981
:1002A0000010A5D4E80000E87648170000E40B54DD
:1002B000020000CA9A3B000000E1F50500008096AC
:1002C0009800000040420F000000A08601000000DE
:1002D000102700000000E803000000006400000098
:1002E00000000A00000000000100000000002C7661
:1002F000D888DC674F0823DFC1DFAE59E1B1B7967C
:10030000E5E3E453C63AE651997696E8E6C28426D8
:10031000EB898C9B62ED407C6FFCEFBC9C9F40F2B4
:10032000BAA56FA5F490055A2AF75C936B6CF96730
:100330006DC11BFCE0E40D47FEF520E6B500D0EDF5
:10034000902E0300943577050080841E080000205D
:100350004E0A000000C80C333333330F986E1283FB
:100360001141EF8D2114893BE65516CFFEE6DB18CF
:10037000D1844B381BF77C1D901DA4BBE424203294
:1003800084725E228100C9F124ECA1E53D2711248D
:100390001FBECFEFDAE0DEBFCDBF11E0A0E0B1E0DD
:1003A000E4E8F1E102C005900D92AC32B107D9F753
:1003B00023E0ACE2B1E001C01D92A033B207E1F747
:1003C00086D0DEC61DCE811103C083B18170089531
:1003D000813021F483B186958170089580E008957D
:1003E0001F920F920FB60F921124FF920F931F933B
:1003F0002F933F934F935F936F937F938F939F932D
:10040000AF93BF93CF93DF93EF93FF93CCE2D1E011
:1004100010E005E0FF24F394812FD5DF9A81891342
:1004200010C08B81882379F08B8181508B838B81E5
:10043000811109C08A8188838881882321F0F9820B
:1004400002C08A830B831F5F2496123029F7FF9125
:10045000EF91DF91CF91BF91AF919F918F917F915C
:100460006F915F914F913F912F911F910F91FF904D
:100470000F900FBE0F901F90189598E0ECE2F1E0FE
:10048000DF01892F1D928A95E9F784B18C7F84B9A9
:100490009093C1001092BF001092BE00CA9AE2E78A
:1004A000F0E080818460808378940895F89494E0EB
:1004B000899FF0011124E45DFE4F808178940895B6
:1004C00084B18C6084B985B1837F85B9089580E853
:1004D0008093610081E0809361008FE36BD4F0DF53
:1004E000CCDF3BD0B9D340E06AE080E091E030D48B
:1004F00048E06AE08AE091E02BD440E168E084E1E2
:1005000091E026D480E0D2DF882329F040E260E049
:1005100084E291E01DD481E0C9DF882329F040E224
:1005200064E188E291E014D486D3DCCF1F920F926D
:100530000FB60F9211248F939F9380913601909163
:100540003701019690933701809336019F918F91E7
:100550000F900FBE0F901F901895E1E8F0E080819A
:100560008A60808383E08093890088EE809388008E
:10057000EFE6F0E080818260808378940895A3E1C3
:10058000B0E0E4ECF2E047C47C011B016A01FC012D
:1005900017821682838181FF49C3BE016F5F7F4F3F
:1005A0004B01F7019381F10193FD859193FF8191B7
:1005B0001F01882309F436C3853239F493FD8591F0
:1005C00093FF81911F01853231F4B70190E048D546
:1005D00056016501E6CF10E0512C20E02032A0F456
:1005E0008B3269F030F4803259F0833269F4206143
:1005F0002CC08D3239F0803339F4216026C022605E
:10060000246023C0286021C027FD27C030ED380FAB
:100610003A3078F426FF06C0FAE01F9F300D11240F
:10062000132F13C06AE0569E300D1124532E206202
:100630000CC08E3221F426FDF5C2206406C08C3633
:1006400011F4206802C0883641F4F10193FD8591D0
:1006500093FF81911F018111C1CF9BEB980F9330C4
:1006600018F42061805E06C09BE9980F933008F073
:100670009AC12F7E26FF16E02F73722E853621F445
:10068000F22FF0647F2E08C0863621F4622F606856
:10069000762E02C01111115077FE07C01C3348F4AA
:1006A00044244394410E27E00BC0183030F4212F2E
:1006B00006C027E04CE3442E03C027E017E0412C9E
:1006C000560174E0A70EB11CF60160817181828130
:1006D0009381042DA401D6D36C01098100FF02C0CF
:1006E00003FF06C071FC07C072FC08C0612C08C083
:1006F0003DE2632E05C02BE2622E02C090E2692E1D
:10070000802F8C7081F1662011F084E001C083E0BD
:10071000851510F0512C0AC0581A73FC07C0B70198
:1007200080E290E09DD45A94D1F7F4CF662021F076
:10073000B701862D90E094D403FD03C000EB10E0D8
:1007400002C00CEA10E0F72DF0717F2EF8018491C1
:10075000882309F45EC271108052B70190E080D402
:100760000F5F1F4FF3CF77FE0FC04C0C04FF04C088
:100770008A81813309F44A94141474F5F8E0F4156D
:1007800078F588E0482E2CC076FC2AC0812F90E0B6
:100790008C159D059CF06CEFC6166FEFD60674F0B5
:1007A000772D7068772E0AC0E2E0F0E0EC0FFD1FB5
:1007B000E10FF11D8081803319F411501111F4CF34
:1007C00077FE0EC044244394410E812F90E0C8165A
:1007D000D9062CF41C1904C04424439401C010E031
:1007E00077FE07C01C141D043CF496012F5F3F4F99
:1007F00005C025E030E002C021E030E0662011F0C5
:100800002F5F3F4F112331F0412F50E04F5F5F4F7B
:10081000240F351F452D50E02417350714F4521AC4
:1008200001C0512C872D897041F4552031F0B7015A
:1008300080E290E015D45A94F8CF662021F0B701F9
:10084000862D90E00DD473FC08C0552031F0B7011F
:1008500080E390E005D45A94F8CF77FE5DC09C2DDC
:100860008D2DD7FE02C090E080E0692E782E40E00A
:1008700050E0C601841991099D878C87960126193D
:100880003709280D391D812F90E0EE27FF27E81B3F
:10089000F90BFF87EE87FFEF6F167F0661F4B70154
:1008A0008EE290E02B8B3A8B488B598BD9D35989A8
:1008B00048893A892B89C614D70454F06C857D8504
:1008C000661577052CF4F901E40FF51F818101C04D
:1008D00080E371E0671A71084F5F5F4FEE85FF8517
:1008E0006E167F0664F0B70190E02B8B3A8B488B35
:1008F000598BB6D32B893A8948895989CCCF6C1446
:100900007D0439F49A81963318F4953311F404FF79
:1009100081E3B70190E045C08A81813309F00F7E01
:10092000B70190E09DD3111105C074FE16C085E497
:1009300090E015C0B7018EE290E092D382E0662489
:100940006394680EF401E80FF11D8081B70190E017
:1009500087D3115051F3862DF2CF85E690E0B70191
:100960007FD3D7FC05C0C114D10439F404FF05C0FE
:10097000D194C194D1088DE201C08BE2B70190E01F
:100980006FD380E36AE0C616D1042CF08F5FFAE0E3
:10099000CF1AD108F7CFB70190E062D3B701C601F3
:1009A000C0965ED336C1833631F0833779F0833514
:1009B00009F054C020C0560172E0A70EB11CF60128
:1009C0008081898301E010E0640113C05601F2E0E8
:1009D000AF0EB11CF601C080D18026FF03C0612F8D
:1009E00070E002C06FEF7FEFC6012B8B2ED38C011E
:1009F0002B892F7714C05601F2E0AF0EB11CF6011F
:100A0000C080D18026FF03C0612F70E002C06FEF6D
:100A10007FEFC6012B8B0ED38C012B892068722EA1
:100A200023FD18C0852D90E00817190798F4B70129
:100A300080E290E015D35A94F5CFF60177FC8591CA
:100A400077FE81916F01B70190E00AD351105A945B
:100A5000015011090115110581F7DBC0843611F031
:100A6000893649F5560127FF09C0F4E0AF0EB11CE5
:100A7000F60160817181828193810AC0F2E0AF0E3C
:100A8000B11CF60160817181882777FD8095982FD0
:100A9000022F0F7697FF08C090958095709561950D
:100AA0007F4F8F4F9F4F00682AE030E0A4010AD3A8
:100AB000C82EC8183DC0022F853721F40F7E2AE0CA
:100AC00030E01DC0097F8F3691F018F4883559F059
:100AD000A9C0803719F0883711F0A4C0006104FF65
:100AE00009C0046007C024FF08C0066006C028E0F3
:100AF00030E005C020E130E002C020E132E05601E4
:100B000007FF09C0F4E0AF0EB11CF60160817181EE
:100B10008281938108C0F2E0AF0EB11CF6016081C2
:100B2000718180E090E0A401CDD2C82EC8180F7763
:100B300006FF0BC0202F2E7FC11650F404FF0AC001
:100B400002FD08C0202F2E7E05C0DC2C202F03C004
:100B5000DC2C01C0D12E24FF0DC0FE01EC0DF11DD7
:100B60008081803311F4297E09C022FF06C0D3940E
:100B7000D39404C0822F867809F0D39423FD12C049
:100B800020FF06C01C2DD51418F4150D1D19D52CE9
:100B9000D51460F4B70180E290E02B8B61D2D3943E
:100BA0002B89F6CFD51410F45D1801C0512C24FF09
:100BB00011C0B70180E390E02B8B52D22B8922FF2A
:100BC00016C021FF03C088E590E002C088E790E0EE
:100BD000B7010CC0822F867851F021FD02C080E25F
:100BE00001C08BE227FD8DE2B70190E039D2C1163A
:100BF00030F4B70180E390E033D21150F8CFCA94BB
:100C0000F401EC0DF11D8081B70190E029D2C110F3
:100C1000F6CF552009F4DDCCB70180E290E020D278
:100C20005A94F7CFF7018681978102C08FEF9FEF2B
:100C30006396E2E10CC1CF93DF9360E080E0E1D006
:100C4000C8E3D1E0699181E097D083E0C033D80751
:100C5000C9F7DF91CF910895E8E3F1E0119283E0C5
:100C6000E033F807D9F70895843500F56033F0F4E0
:100C7000E62FE695E695E695677094E5E99FF00125
:100C8000112490E0E80FF91FE85CFE4F81E090E04E
:100C9000062E01C0880F0A94EAF7442319F09081C8
:100CA000982B03C0809590819823908308957F921C
:100CB0008F929F92AF92BF92CF92DF92EF92FF926C
:100CC0000F931F93CF93DF93862E742E95E0899F09
:100CD0007001112400E010E0F701EC5EFF4F7F018E
:100CE000AA24A394B12C6701C00ED11EC0E0D0E0AD
:100CF000982C900EF6019491A5010C2E02C0440F81
:100D0000551F0A94E2F7E92FF0E04E235F230C2EE3
:100D100002C0559547950A94E2F76C2F670D892D0F
:100D2000A3DF2196C830D10529F70F5F1F4F05308B
:100D30001105C9F6DF91CF911F910F91FF90EF90B0
:100D4000DF90CF90BF90AF909F908F907F9008954D
:100D50000F931F93CF93DF93042FEC01162F8991EC
:100D6000882329F0402F612FA2DF1B5FF8CFDF918E
:100D7000CF911F910F91089525B130E2839FC0015B
:100D800011242F7D282B25B95F9887E090E070E033
:100D90008F989B01082E02C0359527950A94E2F79B
:100DA00020FF02C02E9A01C02E988F9A019780F7DB
:100DB0005F9A0895CF93C82F579A249A259A269A16
:100DC000879A2C985F9A2C9A61E280E0D5DF6C2F8D
:100DD000606880E0D1DF64E080E0CEDF63E180E046
:100DE000CBDF6CE080E0C8DF60E280E0C5DF6CE074
:100DF00080E0C2DF60E480E0BFDF60E880E0CF91A8
:100E0000BBCFCF93C82F606480E0B6DF6C2F6068E3
:100E100080E0CF91B1CF2F923F924F925F926F922D
:100E20007F928F929F92AF92BF92CF92DF92EF927A
:100E3000FF920F931F93CF93DF93CDB7DEB7CA1BFB
:100E4000DB0B0FB6F894DEBF0FBECDBF09942A8826
:100E5000398848885F846E847D848C849B84AA84CE
:100E6000B984C884DF80EE80FD800C811B81AA815B
:100E7000B981CE0FD11D0FB6F894DEBF0FBECDBF26
:100E8000ED010895283008F027E03327DA01990FA3
:100E9000311D87FD916000966105710539F432605E
:100EA0002E5F3D9330E32A95E1F708959F3F30F0A0
:100EB00080387105610509F03C5F3C5F3D939130DE
:100EC00008F08068911DDF93CF931F930F93FF92DB
:100ED000EF92192F987F9695E92F96959695E90FA1
:100EE000FF27E251FD4F99273327EE24FF24A70166
:100EF000E70105900894079428F4360FE71EF81EC2
:100F0000491F511D660F771F881F991F0694A1F76F
:100F10000590079428F4E70EF81E491F561FC11DBF
:100F2000770F881F991F661F0694A1F705900794F5
:100F300028F4F80E491F561FC71FD11D880F991F8F
:100F4000661F771F0694A1F70590079420F4490FB8
:100F5000561FC71FD81F990F661F771F881F06943B
:100F6000A9F784911095177041F0D695C7955795BC
:100F70004795F794E7941A95C1F7E4E9F2E068948D
:100F80001590159135916591959105907FE2739536
:100F9000E118F10A430B560BC90BD009C0F7E10C5D
:100FA000F11E431F561FC91FD01D7EF4703311F46C
:100FB0008A95E6CFE894015030F0080F0AF4002734
:100FC000021708F4202F2395022F7A3328F079E3B3
:100FD0007D932A95E9F710C07D932A9589F60694AA
:100FE00097956795379517951794E118F10A430B74
:100FF000560BC90BD00998F023957E9173957A33DF
:1010000008F070E37C932013B8F77E9170617D93B4
:1010100030F0839571E37D9370E32A95E1F7112415
:10102000EF90FF900F911F91CF91DF91992787FD4E
:1010300090950895FC010590615070400110D8F71B
:10104000809590958E0F9F1F0895FC016150704010
:1010500001900110D8F7809590958E0F9F1F0895ED
:101060000F931F93CF93DF93182F092FEB018B81E1
:1010700081FD03C08FEF9FEF20C082FF10C04E8123
:101080005F812C813D81421753077CF4E881F9810F
:101090009F012F5F3F4F39832883108306C0E88567
:1010A000F985812F0995892B29F72E813F812F5FA3
:1010B0003F4F3F832E83812F902FDF91CF911F9140
:1010C0000F910895FA01AA27283051F1203181F1BA
:1010D000E8946F936E7F6E5F7F4F8F4F9F4FAF4F40
:1010E000B1E03ED0B4E03CD0670F781F891F9A1F53
:1010F000A11D680F791F8A1F911DA11D6A0F711D07
:10110000811D911DA11D20D009F468943F912AE012
:10111000269F11243019305D3193DEF6CF010895FA
:10112000462F4770405D4193B3E00FD0C9F7F6CF2B
:10113000462F4F70405D4A3318F0495D31FD4052F3
:10114000419302D0A9F7EACFB4E0A6959795879589
:1011500077956795BA95C9F7009761057105089568
:101160009B01AC010A2E0694579547953795279514
:10117000BA95C9F7620F731F841F951FA01D0895AC
:04118000F894FFCF11
:101184005465656E73794C43440053696D756C61A5
:10119400746F720055706C6F6164206669726D774C
:0C11A40061726500535730005357310052
:00000001FF
